{
  "_format": "hh-sol-artifact-1",
  "contractName": "Election",
  "sourceName": "contracts/Election.sol",
  "abi": [
    {
      "inputs": [],
      "stateMutability": "nonpayable",
      "type": "constructor"
    },
    {
      "anonymous": false,
      "inputs": [
        {
          "indexed": false,
          "internalType": "string",
          "name": "name",
          "type": "string"
        },
        {
          "indexed": false,
          "internalType": "uint256",
          "name": "voteCount",
          "type": "uint256"
        }
      ],
      "name": "ElectResults",
      "type": "event"
    },
    {
      "inputs": [
        {
          "internalType": "uint256",
          "name": "candidateId",
          "type": "uint256"
        }
      ],
      "name": "addCandidate",
      "outputs": [],
      "stateMutability": "payable",
      "type": "function"
    },
    {
      "inputs": [
        {
          "internalType": "address",
          "name": "voter",
          "type": "address"
        }
      ],
      "name": "authorize",
      "outputs": [],
      "stateMutability": "payable",
      "type": "function"
    },
    {
      "inputs": [
        {
          "internalType": "uint256",
          "name": "",
          "type": "uint256"
        }
      ],
      "name": "candids",
      "outputs": [
        {
          "internalType": "uint256",
          "name": "name",
          "type": "uint256"
        },
        {
          "internalType": "uint256",
          "name": "voteCount",
          "type": "uint256"
        }
      ],
      "stateMutability": "view",
      "type": "function"
    },
    {
      "inputs": [],
      "name": "chairperson",
      "outputs": [
        {
          "internalType": "address",
          "name": "",
          "type": "address"
        }
      ],
      "stateMutability": "view",
      "type": "function"
    },
    {
      "inputs": [],
      "name": "getCandidateCount",
      "outputs": [
        {
          "internalType": "uint256",
          "name": "",
          "type": "uint256"
        }
      ],
      "stateMutability": "view",
      "type": "function"
    },
    {
      "inputs": [
        {
          "internalType": "address",
          "name": "voter_address",
          "type": "address"
        }
      ],
      "name": "getVotersWeight",
      "outputs": [
        {
          "internalType": "uint256",
          "name": "",
          "type": "uint256"
        }
      ],
      "stateMutability": "view",
      "type": "function"
    },
    {
      "inputs": [],
      "name": "getWinner",
      "outputs": [],
      "stateMutability": "view",
      "type": "function"
    },
    {
      "inputs": [],
      "name": "name",
      "outputs": [
        {
          "internalType": "string",
          "name": "",
          "type": "string"
        }
      ],
      "stateMutability": "view",
      "type": "function"
    },
    {
      "inputs": [],
      "name": "showCandidate",
      "outputs": [],
      "stateMutability": "view",
      "type": "function"
    },
    {
      "inputs": [
        {
          "internalType": "uint256",
          "name": "voteIndex",
          "type": "uint256"
        }
      ],
      "name": "voteCandidate",
      "outputs": [],
      "stateMutability": "nonpayable",
      "type": "function"
    },
    {
      "inputs": [
        {
          "internalType": "address",
          "name": "",
          "type": "address"
        }
      ],
      "name": "voters",
      "outputs": [
        {
          "internalType": "bool",
          "name": "voted",
          "type": "bool"
        },
        {
          "internalType": "uint256",
          "name": "voteIndex",
          "type": "uint256"
        },
        {
          "internalType": "uint256",
          "name": "weight",
          "type": "uint256"
        }
      ],
      "stateMutability": "view",
      "type": "function"
    }
  ],
  "bytecode": "0x608060405234801561001057600080fd5b5033600160006101000a81548173ffffffffffffffffffffffffffffffffffffffff021916908373ffffffffffffffffffffffffffffffffffffffff1602179055506112bd806100616000396000f3fe60806040526004361061009c5760003560e01c80638e7ea5b2116100645780638e7ea5b214610188578063a3ec138d1461019f578063b6a5d7de146101de578063bbe4524e146101fa578063e2121b8914610238578063e844d0971461024f5761009c565b806306fdde03146100a15780632e4176cf146100cc57806330a56347146100f757806341a59cc8146101225780638c08a4dc1461015f575b600080fd5b3480156100ad57600080fd5b506100b661026b565b6040516100c39190610dd2565b60405180910390f35b3480156100d857600080fd5b506100e16102f9565b6040516100ee9190610d80565b60405180910390f35b34801561010357600080fd5b5061010c61031f565b6040516101199190610ed2565b60405180910390f35b34801561012e57600080fd5b5061014960048036038101906101449190610c19565b61032c565b6040516101569190610ed2565b60405180910390f35b34801561016b57600080fd5b5061018660048036038101906101819190610c42565b6103df565b005b34801561019457600080fd5b5061019d6106e1565b005b3480156101ab57600080fd5b506101c660048036038101906101c19190610c19565b610761565b6040516101d593929190610d9b565b60405180910390f35b6101f860048036038101906101f39190610c19565b610798565b005b34801561020657600080fd5b50610221600480360381019061021c9190610c42565b610897565b60405161022f929190610eed565b60405180910390f35b34801561024457600080fd5b5061024d6108cb565b005b61026960048036038101906102649190610c42565b610946565b005b6002805461027890611003565b80601f01602080910402602001604051908101604052809291908181526020018280546102a490611003565b80156102f15780601f106102c6576101008083540402835291602001916102f1565b820191906000526020600020905b8154815290600101906020018083116102d457829003601f168201915b505050505081565b600160009054906101000a900473ffffffffffffffffffffffffffffffffffffffff1681565b6000600480549050905090565b600061036c6040518060400160405280601581526020017f67657474696e6720766f746572732077656967687400000000000000000000008152506109f2565b6000600360008473ffffffffffffffffffffffffffffffffffffffff1673ffffffffffffffffffffffffffffffffffffffff1681526020019081526020016000206002015490506103d66040518060600160405280602d815260200161125b602d91398285610a8b565b80915050919050565b6103de6000546103ef9190610f32565b4211610430576040517f08c379a000000000000000000000000000000000000000000000000000000000815260040161042790610e92565b60405180910390fd5b6105416000546104409190610f32565b421115610482576040517f08c379a000000000000000000000000000000000000000000000000000000000815260040161047990610e52565b60405180910390fd5b600360003373ffffffffffffffffffffffffffffffffffffffff1673ffffffffffffffffffffffffffffffffffffffff16815260200190815260200160002060000160009054906101000a900460ff1615610512576040517f08c379a000000000000000000000000000000000000000000000000000000000815260040161050990610e72565b60405180910390fd5b6000600360003373ffffffffffffffffffffffffffffffffffffffff1673ffffffffffffffffffffffffffffffffffffffff168152602001908152602001600020600201541415610598576040517f08c379a000000000000000000000000000000000000000000000000000000000815260040161058f90610e32565b60405180910390fd5b6001600360003373ffffffffffffffffffffffffffffffffffffffff1673ffffffffffffffffffffffffffffffffffffffff16815260200190815260200160002060000160006101000a81548160ff02191690831515021790555080600360003373ffffffffffffffffffffffffffffffffffffffff1673ffffffffffffffffffffffffffffffffffffffff16815260200190815260200160002060010181905550600360003373ffffffffffffffffffffffffffffffffffffffff1673ffffffffffffffffffffffffffffffffffffffff16815260200190815260200160002060020154600482815481106106b7577f4e487b7100000000000000000000000000000000000000000000000000000000600052603260045260246000fd5b906000526020600020906002020160010160008282546106d79190610f32565b9250508190555050565b600160009054906101000a900473ffffffffffffffffffffffffffffffffffffffff1673ffffffffffffffffffffffffffffffffffffffff163373ffffffffffffffffffffffffffffffffffffffff161461073b57600080fd5b60005b60048054905081101561075e57808061075690611035565b91505061073e565b50565b60036020528060005260406000206000915090508060000160009054906101000a900460ff16908060010154908060020154905083565b600160009054906101000a900473ffffffffffffffffffffffffffffffffffffffff1673ffffffffffffffffffffffffffffffffffffffff163373ffffffffffffffffffffffffffffffffffffffff16146107f257600080fd5b600360008273ffffffffffffffffffffffffffffffffffffffff1673ffffffffffffffffffffffffffffffffffffffff16815260200190815260200160002060000160009054906101000a900460ff161561084c57600080fd5b6001600360008373ffffffffffffffffffffffffffffffffffffffff1673ffffffffffffffffffffffffffffffffffffffff1681526020019081526020016000206002018190555050565b600481815481106108a757600080fd5b90600052602060002090600202016000915090508060000154908060010154905082565b60005b600480549050811015610943576109308160048381548110610919577f4e487b7100000000000000000000000000000000000000000000000000000000600052603260045260246000fd5b906000526020600020906002020160000154610b2a565b808061093b90611035565b9150506108ce565b50565b6103de6000546109569190610f32565b421115610998576040517f08c379a000000000000000000000000000000000000000000000000000000000815260040161098f90610eb2565b60405180910390fd5b60046040518060400160405280838152602001600081525090806001815401808255809150506001900390600052602060002090600202016000909190919091506000820151816000015560208201518160010155505050565b610a8881604051602401610a069190610dd2565b6040516020818303038152906040527f41304fac000000000000000000000000000000000000000000000000000000007bffffffffffffffffffffffffffffffffffffffffffffffffffffffff19166020820180517bffffffffffffffffffffffffffffffffffffffffffffffffffffffff8381831617835250505050610bc6565b50565b610b25838383604051602401610aa393929190610df4565b6040516020818303038152906040527fe3849f79000000000000000000000000000000000000000000000000000000007bffffffffffffffffffffffffffffffffffffffffffffffffffffffff19166020820180517bffffffffffffffffffffffffffffffffffffffffffffffffffffffff8381831617835250505050610bc6565b505050565b610bc28282604051602401610b40929190610eed565b6040516020818303038152906040527f6c0f6980000000000000000000000000000000000000000000000000000000007bffffffffffffffffffffffffffffffffffffffffffffffffffffffff19166020820180517bffffffffffffffffffffffffffffffffffffffffffffffffffffffff8381831617835250505050610bc6565b5050565b60008151905060006a636f6e736f6c652e6c6f679050602083016000808483855afa5050505050565b600081359050610bfe8161122c565b92915050565b600081359050610c1381611243565b92915050565b600060208284031215610c2b57600080fd5b6000610c3984828501610bef565b91505092915050565b600060208284031215610c5457600080fd5b6000610c6284828501610c04565b91505092915050565b610c7481610f88565b82525050565b610c8381610f9a565b82525050565b6000610c9482610f16565b610c9e8185610f21565b9350610cae818560208601610fd0565b610cb7816110dc565b840191505092915050565b6000610ccf601483610f21565b9150610cda826110ed565b602082019050919050565b6000610cf2602683610f21565b9150610cfd82611116565b604082019050919050565b6000610d15601183610f21565b9150610d2082611165565b602082019050919050565b6000610d38602183610f21565b9150610d438261118e565b604082019050919050565b6000610d5b602c83610f21565b9150610d66826111dd565b604082019050919050565b610d7a81610fc6565b82525050565b6000602082019050610d956000830184610c6b565b92915050565b6000606082019050610db06000830186610c7a565b610dbd6020830185610d71565b610dca6040830184610d71565b949350505050565b60006020820190508181036000830152610dec8184610c89565b905092915050565b60006060820190508181036000830152610e0e8186610c89565b9050610e1d6020830185610d71565b610e2a6040830184610c6b565b949350505050565b60006020820190508181036000830152610e4b81610cc2565b9050919050565b60006020820190508181036000830152610e6b81610ce5565b9050919050565b60006020820190508181036000830152610e8b81610d08565b9050919050565b60006020820190508181036000830152610eab81610d2b565b9050919050565b60006020820190508181036000830152610ecb81610d4e565b9050919050565b6000602082019050610ee76000830184610d71565b92915050565b6000604082019050610f026000830185610d71565b610f0f6020830184610d71565b9392505050565b600081519050919050565b600082825260208201905092915050565b6000610f3d82610fc6565b9150610f4883610fc6565b9250827fffffffffffffffffffffffffffffffffffffffffffffffffffffffffffffffff03821115610f7d57610f7c61107e565b5b828201905092915050565b6000610f9382610fa6565b9050919050565b60008115159050919050565b600073ffffffffffffffffffffffffffffffffffffffff82169050919050565b6000819050919050565b60005b83811015610fee578082015181840152602081019050610fd3565b83811115610ffd576000848401525b50505050565b6000600282049050600182168061101b57607f821691505b6020821081141561102f5761102e6110ad565b5b50919050565b600061104082610fc6565b91507fffffffffffffffffffffffffffffffffffffffffffffffffffffffffffffffff8214156110735761107261107e565b5b600182019050919050565b7f4e487b7100000000000000000000000000000000000000000000000000000000600052601160045260246000fd5b7f4e487b7100000000000000000000000000000000000000000000000000000000600052602260045260246000fd5b6000601f19601f8301169050919050565b7f486173206e6f20726967687420746f20766f7465000000000000000000000000600082015250565b7f54696d6520657863656564656420666f7220766f74696e672e2056696577207260008201527f6573756c74730000000000000000000000000000000000000000000000000000602082015250565b7f48617320616c726561647920766f746564000000000000000000000000000000600082015250565b7f54696d65206e6f7420657863656564656420666f72207265676973746572696e60008201527f6700000000000000000000000000000000000000000000000000000000000000602082015250565b7f54696d6520657863656564656420666f722072656769737472696e672e204c6560008201527f74207468656d20566f7465210000000000000000000000000000000000000000602082015250565b61123581610f88565b811461124057600080fd5b50565b61124c81610fc6565b811461125757600080fd5b5056fe766f746572732077656967687420697320257320616e6420766f74657273206164647265737320697320257320a26469706673582212200c34ad2c9afa49b18e8dfcbcedfccf189aa5d223eca9eace6fbbf25878b76a0e64736f6c63430008040033",
  "linkReferences": {},
  "deployedLinkReferences": {}
}