{
  "_format": "hh-sol-artifact-1",
  "contractName": "MyVotingApp",
  "sourceName": "contracts/Election.sol",
  "abi": [
    {
      "inputs": [],
      "stateMutability": "nonpayable",
      "type": "constructor"
    },
    {
      "anonymous": false,
      "inputs": [
        {
          "components": [
            {
              "internalType": "bytes32",
              "name": "name",
              "type": "bytes32"
            },
            {
              "internalType": "uint256",
              "name": "voteCount",
              "type": "uint256"
            }
          ],
          "indexed": false,
          "internalType": "struct MyVotingApp.Candidate",
          "name": "_candidate",
          "type": "tuple"
        }
      ],
      "name": "CandidateAdded",
      "type": "event"
    },
    {
      "anonymous": false,
      "inputs": [
        {
          "indexed": false,
          "internalType": "address",
          "name": "newChairPerson",
          "type": "address"
        }
      ],
      "name": "ChairPersonChangedTo",
      "type": "event"
    },
    {
      "inputs": [
        {
          "internalType": "bytes32",
          "name": "candidate",
          "type": "bytes32"
        }
      ],
      "name": "addCandidate",
      "outputs": [
        {
          "internalType": "bool",
          "name": "",
          "type": "bool"
        }
      ],
      "stateMutability": "nonpayable",
      "type": "function"
    },
    {
      "inputs": [
        {
          "internalType": "uint256",
          "name": "",
          "type": "uint256"
        }
      ],
      "name": "candidates",
      "outputs": [
        {
          "internalType": "bytes32",
          "name": "name",
          "type": "bytes32"
        },
        {
          "internalType": "uint256",
          "name": "voteCount",
          "type": "uint256"
        }
      ],
      "stateMutability": "view",
      "type": "function"
    },
    {
      "inputs": [],
      "name": "chairperson",
      "outputs": [
        {
          "internalType": "address",
          "name": "",
          "type": "address"
        }
      ],
      "stateMutability": "view",
      "type": "function"
    },
    {
      "inputs": [
        {
          "internalType": "address",
          "name": "_chairperson",
          "type": "address"
        }
      ],
      "name": "changeChairperson",
      "outputs": [
        {
          "internalType": "bool",
          "name": "",
          "type": "bool"
        }
      ],
      "stateMutability": "nonpayable",
      "type": "function"
    },
    {
      "inputs": [],
      "name": "getWinner",
      "outputs": [
        {
          "internalType": "bytes32",
          "name": "",
          "type": "bytes32"
        }
      ],
      "stateMutability": "view",
      "type": "function"
    },
    {
      "inputs": [
        {
          "internalType": "uint256",
          "name": "candidateId",
          "type": "uint256"
        }
      ],
      "name": "voteCandidate",
      "outputs": [
        {
          "internalType": "bool",
          "name": "",
          "type": "bool"
        }
      ],
      "stateMutability": "nonpayable",
      "type": "function"
    },
    {
      "inputs": [
        {
          "internalType": "address",
          "name": "",
          "type": "address"
        }
      ],
      "name": "voters",
      "outputs": [
        {
          "internalType": "bool",
          "name": "hasVoted",
          "type": "bool"
        }
      ],
      "stateMutability": "view",
      "type": "function"
    }
  ],
  "bytecode": "0x608060405234801561001057600080fd5b5033600160006101000a81548173ffffffffffffffffffffffffffffffffffffffff021916908373ffffffffffffffffffffffffffffffffffffffff16021790555042600081905550610c26806100686000396000f3fe608060405234801561001057600080fd5b506004361061007d5760003560e01c806353c3842b1161005b57806353c3842b146101015780638c08a4dc146101315780638e7ea5b214610161578063a3ec138d1461017f5761007d565b8063230d6ed8146100825780632e4176cf146100b25780633477ee2e146100d0575b600080fd5b61009c60048036038101906100979190610764565b6101af565b6040516100a991906108cb565b60405180910390f35b6100ba61037b565b6040516100c791906108b0565b60405180910390f35b6100ea60048036038101906100e59190610791565b6103a1565b6040516100f8929190610901565b60405180910390f35b61011b60048036038101906101169190610737565b6103d5565b60405161012891906108cb565b60405180910390f35b61014b60048036038101906101469190610791565b6104e8565b60405161015891906108cb565b60405180910390f35b610169610620565b60405161017691906108e6565b60405180910390f35b61019960048036038101906101949190610737565b6106cd565b6040516101a691906108cb565b60405180910390f35b6000600160009054906101000a900473ffffffffffffffffffffffffffffffffffffffff1673ffffffffffffffffffffffffffffffffffffffff163373ffffffffffffffffffffffffffffffffffffffff1614610241576040517f08c379a00000000000000000000000000000000000000000000000000000000081526004016102389061094a565b60405180910390fd5b8160005b6003805490508110156102cd57816003828154811061026757610266610ad6565b5b90600052602060002090600202016000015414156102ba576040517f08c379a00000000000000000000000000000000000000000000000000000000081526004016102b19061092a565b60405180910390fd5b80806102c590610a5e565b915050610245565b506003604051806040016040528085815260200160008152509080600181540180825580915050600190039060005260206000209060020201600090919091909150600082015181600001556020820151816001015550507fe0decde430e8d5da14bfcd20daf52a6d78506529c8099924981e7fb9602d31b260405180604001604052808581526020016000815250604051610369919061098a565b60405180910390a16001915050919050565b600160009054906101000a900473ffffffffffffffffffffffffffffffffffffffff1681565b600381815481106103b157600080fd5b90600052602060002090600202016000915090508060000154908060010154905082565b6000600160009054906101000a900473ffffffffffffffffffffffffffffffffffffffff1673ffffffffffffffffffffffffffffffffffffffff163373ffffffffffffffffffffffffffffffffffffffff1614610467576040517f08c379a000000000000000000000000000000000000000000000000000000000815260040161045e9061094a565b60405180910390fd5b81600160006101000a81548173ffffffffffffffffffffffffffffffffffffffff021916908373ffffffffffffffffffffffffffffffffffffffff1602179055507f5a8aeea05c5c0312435b99c66b28e192bec707c2f039be5997416ea6ea103658826040516104d791906108b0565b60405180910390a160019050919050565b6000801515600260003373ffffffffffffffffffffffffffffffffffffffff1673ffffffffffffffffffffffffffffffffffffffff16815260200190815260200160002060000160009054906101000a900460ff1615151461057f576040517f08c379a00000000000000000000000000000000000000000000000000000000081526004016105769061096a565b60405180910390fd5b60016003838154811061059557610594610ad6565b5b906000526020600020906002020160010160008282546105b591906109b6565b925050819055506001600260003373ffffffffffffffffffffffffffffffffffffffff1673ffffffffffffffffffffffffffffffffffffffff16815260200190815260200160002060000160006101000a81548160ff02191690831515021790555060019050919050565b6000806000905060005b6003805490508110156106a0576003828154811061064b5761064a610ad6565b5b9060005260206000209060020201600101546003828154811061067157610670610ad6565b5b906000526020600020906002020160010154111561068d578091505b808061069890610a5e565b91505061062a565b50600381815481106106b5576106b4610ad6565b5b90600052602060002090600202016000015491505090565b60026020528060005260406000206000915090508060000160009054906101000a900460ff16905081565b60008135905061070781610bab565b92915050565b60008135905061071c81610bc2565b92915050565b60008135905061073181610bd9565b92915050565b60006020828403121561074d5761074c610b05565b5b600061075b848285016106f8565b91505092915050565b60006020828403121561077a57610779610b05565b5b60006107888482850161070d565b91505092915050565b6000602082840312156107a7576107a6610b05565b5b60006107b584828501610722565b91505092915050565b6107c781610a0c565b82525050565b6107d681610a1e565b82525050565b6107e581610a2a565b82525050565b6107f481610a2a565b82525050565b60006108076018836109a5565b915061081282610b0a565b602082019050919050565b600061082a602d836109a5565b915061083582610b33565b604082019050919050565b600061084d6016836109a5565b915061085882610b82565b602082019050919050565b60408201600082015161087960008501826107dc565b50602082015161088c6020850182610892565b50505050565b61089b81610a54565b82525050565b6108aa81610a54565b82525050565b60006020820190506108c560008301846107be565b92915050565b60006020820190506108e060008301846107cd565b92915050565b60006020820190506108fb60008301846107eb565b92915050565b600060408201905061091660008301856107eb565b61092360208301846108a1565b9392505050565b60006020820190508181036000830152610943816107fa565b9050919050565b600060208201905081810360008301526109638161081d565b9050919050565b6000602082019050818103600083015261098381610840565b9050919050565b600060408201905061099f6000830184610863565b92915050565b600082825260208201905092915050565b60006109c182610a54565b91506109cc83610a54565b9250827fffffffffffffffffffffffffffffffffffffffffffffffffffffffffffffffff03821115610a0157610a00610aa7565b5b828201905092915050565b6000610a1782610a34565b9050919050565b60008115159050919050565b6000819050919050565b600073ffffffffffffffffffffffffffffffffffffffff82169050919050565b6000819050919050565b6000610a6982610a54565b91507fffffffffffffffffffffffffffffffffffffffffffffffffffffffffffffffff821415610a9c57610a9b610aa7565b5b600182019050919050565b7f4e487b7100000000000000000000000000000000000000000000000000000000600052601160045260246000fd5b7f4e487b7100000000000000000000000000000000000000000000000000000000600052603260045260246000fd5b600080fd5b7f43616e64696461746520616c7265616479206578697374730000000000000000600082015250565b7f4f6e6c79204368616972706572736f6e20697320616c6c6f77656420746f206160008201527f64642063616e6469646174657300000000000000000000000000000000000000602082015250565b7f596f75206861766520616c726561647920766f74656400000000000000000000600082015250565b610bb481610a0c565b8114610bbf57600080fd5b50565b610bcb81610a2a565b8114610bd657600080fd5b50565b610be281610a54565b8114610bed57600080fd5b5056fea2646970667358221220e856f328833a3b0d4a2e497761eecf9c9f1c7c12ea92d0ccc8987d64991aa39564736f6c63430008070033",
  "linkReferences": {},
  "deployedLinkReferences": {}
}